:100000000C9434000C9451000C9451000C94510049
:100010000C9451000C9451000C9451000C9451001C
:100020000C9451000C9451000C9451000C9451000C
:100030000C9451000C9451000C9451000C945100FC
:100040000C9451000C9451000C945E000C945100DF
:100050000C9451000C9451000C9451000C945100DC
:100060000C9451000C94510011241FBECFEFD4E02A
:10007000DEBFCDBF11E0A0E0B1E0E8E0F2E002C0F9
:1000800005900D92A030B107D9F711E0A0E0B1E0E2
:1000900001C01D92AC31B107E1F70E94BD000C9484
:1000A00002010C9400009EBD0DB407FEFDCF8EBD75
:1000B0000DB407FEFDCF2A9A2A9808951F920F9239
:1000C0000FB60F9211242F933F934F935F936F932B
:1000D0007F938F939F93AF93BF93EF93FF93809101
:1000E000C60020910401309105012130310571F0E5
:1000F0002130310520F02230310571F521C0909179
:100100001B01891749F58093010110C090910601E8
:10011000891B8093020180910201A90102C0440F52
:10012000551F8A95E2F7CA010E945300809104018D
:1001300090910501019690930501809304010CC0F4
:10014000809303011092050110920401E0910201D5
:10015000F0E0E55FFE4F8083FF91EF91BF91AF919B
:100160009F918F917F916F915F914F913F912F91CF
:100170000F900FBE0F901F901895CF93DF930F92A3
:10018000CDB7DEB784B18C6284B980E58CBD569A58
:1001900083E884BD81E085BD8FEF87B980E188B9B0
:1001A0001092C50087E28093C40088E98093C10063
:1001B00096E09093C2001092050110920401809382
:1001C0001B0188E180930601789417BC08EA11E6C8
:1001D000198210C08981E981F0E0E55FFE4F9081CE
:1001E00097BD8F7088B94498C8010197F1F789814C
:1001F0008F5F89838981803168F380E090E00E947D
:080200005300E6CFF894FFCF94
:00000001FF
