:100000000C9434000C9451000C9451000C94510049
:100010000C9451000C9451000C9451000C9451001C
:100020000C9451000C9451000C9451000C9451000C
:100030000C9451000C9451000C9451000C945100FC
:100040000C9451000C9451000C9451000C945100EC
:100050000C9451000C9451000C9451000C945100DC
:100060000C9451000C94510011241FBECFEFD4E02A
:10007000DEBFCDBF11E0A0E0B1E0EAEFF0E002C0EA
:1000800005900D92A030B107D9F711E0A0E0B1E0E2
:1000900001C01D92A030B107E1F70E946D000C94E1
:1000A0007B000C9400008CE284B981E58CBD08953E
:1000B0002A9A2A9808958EBD0DB407FEFDCF0E949E
:1000C000580008959EBD0DB407FEFDCF8EBD0DB442
:1000D00007FEFDCF0E94580008950E945300C0E023
:1000E000D0E00CE41DE1CE010E946200C80101973E
:0A00F000F1F72196F8CFF894FFCF46
:00000001FF
