:100000000C9434000C9451000C9451000C94510049
:100010000C9451000C9451000C9451000C9451001C
:100020000C9451000C9451000C9451000C9451000C
:100030000C9451000C9451000C9451000C945100FC
:100040000C9451000C9451000C945E000C945100DF
:100050000C9451000C9451000C9451000C945100DC
:100060000C9451000C94510011241FBECFEFD4E02A
:10007000DEBFCDBF11E0A0E0B1E0E2EBF1E002C0F5
:1000800005900D92A230B107D9F711E0A2E0B1E0DE
:1000900001C01D92AD30B107E1F70E94B1000C9490
:1000A000D7000C9400009EBD0DB407FEFDCF8EBDA1
:1000B0000DB407FEFDCF2A9A2A9808951F920F9239
:1000C0000FB60F9211242F933F934F935F936F932B
:1000D0007F938F939F93AF93BF93CF93EF93FF93B0
:1000E000C091C60080910601909107018130910571
:1000F00091F08130910520F08230910501F517C013
:1001000080910C01C817D9F48FEF9FEF0E94530024
:10011000C093030102C0C093040180910601909135
:1001200007010196909307018093060108C0C093D0
:100130000501CC0FC7BD1092070110920601FF9177
:10014000EF91CF91BF91AF919F918F917F916F91DF
:100150005F914F913F912F910F900FBE0F901F9085
:10016000189584B18C6284B980E58CBD569A83E879
:1001700084BD81E085BD1092C50087E28093C400F4
:1001800088E98093C10096E09093C2001092070125
:100190001092060180930C017894C0E5D3ECCE0157
:1001A0000197F1F780E090E00E945300F8CFF894B7
:0201B000FFCF7F
:00000001FF
