:100000000C9434000C9451000C9451000C94510049
:100010000C9451000C9451000C9451000C9451001C
:100020000C9451000C9451000C9451000C9451000C
:100030000C9451000C9451000C9451000C945100FC
:100040000C9451000C9451000C9453000C945100EA
:100050000C9451000C9451000C9451000C945100DC
:100060000C9451000C94510011241FBECFEFD4E02A
:10007000DEBFCDBF11E0A0E0B1E0ECEDF1E002C0E9
:1000800005900D92A030B107D9F711E0A0E0B1E0E2
:1000900001C01D92AC30B107E1F70E94B5000C948D
:1000A000EC000C9400001F920F920FB60F921124D7
:1000B0002F933F938F939F932091C60080910401CB
:1000C000909105018130910581F181309105E8F031
:1000D0008230910589F420930301220F27BD80917E
:1000E00002018F7088B9449880E593EC0197F1F78D
:1000F00010920501109204019F918F913F912F91D1
:100100000F900FBE0F901F90189580910B0128172C
:1001100099F72093010180910401909105010196C6
:100120009093050180930401E7CF30910601231BD2
:10013000209302012091020102C0880F991F2A9585
:10014000E2F79EBD0DB407FEFDCF8EBD0DB407FED8
:10015000FDCF2A9A2A988091040190910501019679
:100160009093050180930401C7CF84B18C6284B958
:1001700080E58CBD569A83E884BD81E085BD8FEF14
:1001800087B980E188B91092C50087E28093C400E6
:1001900088E98093C10096E09093C2001092050117
:1001A0001092040180930B0188E1809306017894FA
:1001B00024EF31E088EC90E0F9013197F1F70197F5
:1001C000D9F71EBC0DB407FEFDCF1EBC0DB407FE53
:0C01D000FDCF2A9A2A98EECFF894FFCFBA
:00000001FF
