:100000000C9434000C9451000C9451000C94510049
:100010000C9451000C9451000C9451000C9451001C
:100020000C9451000C9451000C9451000C9451000C
:100030000C9451000C9451000C9451000C945100FC
:100040000C9451000C9451000C9488000C945100B5
:100050000C9451000C9451000C9451000C945100DC
:100060000C9451000C94510011241FBECFEFD4E02A
:10007000DEBFCDBF11E0A0E0B1E0ECEBF1E002C0EB
:1000800005900D92A030B107D9F711E0A0E0B1E0E2
:1000900001C01D92A730B107E1F70E94C9000C947E
:1000A000DC000C9400009093C5008093C40088E9A4
:1000B0008093C10086E08093C20008959091C000B3
:1000C00095FFFCCF8093C6000895569A83E884BDBF
:1000D00081E085BD089584B18C6284B980E58CBDD2
:1000E00008952A9A2A9808958EBD0DB407FEFDCF73
:1000F0000E9471000E94710008959EBD0DB407FE1C
:10010000FDCF8EBD0DB407FEFDCF0E947100089596
:100110001F920F920FB60F9211242F933F934F937C
:100120005F936F937F938F939F93AF93BF93EF935F
:10013000FF938091C60020910001309101012115AB
:100140003105B1F42091060190E08F70907030E09D
:100150008217930769F48FEF9FEF0E947D008091D3
:10016000000190910101019690930101809300019B
:10017000FF91EF91BF91AF919F918F917F916F917F
:100180005F914F913F912F910F900FBE0F901F9055
:1001900018950E946B000E9465008FE090E00E941D
:1001A00053007894C0E2DEE4CE010197F1F780E0DD
:0C01B00090E00E947D00F8CFF894FFCF93
:00000001FF
